:020000040000FA
:020000009C2E34
:040002000034003492
:080008008B13F000030E8301CD
:10001000A0000408A2000A08A1008A018A150A1299
:100020000B1900218A110A128A150A128C18232131
:100030008A110A128A150A128B1869218A110A126A
:100040008C1AA82183160C1A872183128301210898
:100050008A0022088400200E8300F00E700E8B1799
:1000600009004A08820700100800001408008010E8
:100070000800801408000011080000150800801115
:100080000800801508000012080000160800801201
:1000900008008016080000130800001708008013ED
:1000A0000800801708008207D034D134D234D3340A
:1000B000D434D534D634D7348207D834D934DA346A
:1000C000DB34DC34DD34DE34DF34820701340234E7
:0C00D000043408341034203440348034F0
:100200002030E000E100E300E400E500E600E70064
:10021000E800E900EA00EB00EC00ED00EE007108F8
:10022000E20008007F190800831729088400EF0105
:1002300060088000EF07840A6E2161088000EF07E4
:10024000840A6E2162088000EF07840A6E21630829
:100250008000EF07840A6E2164088000EF07840A9B
:100260006E2165088000EF07840A6E216608800011
:10027000EF07840A6E2167088000EF07840A6E2169
:1002800068088000EF07840A6E2169088000EF0784
:10029000840A6E216A088000EF07840A6E216B08C9
:1002A0008000EF07840A6E216C088000EF07840A43
:1002B0006E216D088000EF07840A6E216E088000B1
:1002C000EF07840A6E216F088000840A6E210408FB
:1002D000A90029082A0203197F15080004086F3CA9
:1002E00003197529031C75290800103084000800C3
:1002F0007F197F2929082A02031D7F2908008316F8
:100300000C1A85290C168312872183120800831288
:1003100003130C1E080029082A02031D95297F19C2
:10032000080083160C128312080083172A08840021
:1003300000089900840A04086F3C0319A429031CCF
:10034000A4290408AA00A6291030AA007F110800D9
:100350001A08FF19B729AE007F12FF12BF217F1ABA
:10036000B729FF1ABB29AF0A2E08B00708002B08CF
:10037000AC00AF0108002C08AB00AF0108007F12F1
:100380002F080319CC292F08023C0319DF292F0855
:100390000F3C0319E529052A2E08513C0319DA29D7
:1003A0002E08523C0319DA292E08453C0319DA2994
:1003B0007F160800B00105221930B1000800AE0810
:1003C000031D7F1603190522080030082E02031DA5
:1003D0007F16031D0800FF160800981C080018125D
:1003E0001816F42708002030D000D100D200D30026
:1003F000D400D500D600D700D800D900DA00DB0041
:10040000DC00DD00DE00DF000800FF1908008317B4
:100410002C0884002E088000840A0408E93C031993
:10042000162A031C162A0408AC00182A9030AC00C7
:100430002C082D020319FF150800FF19232A2B0889
:100440002D02031908002D08840083170008D0002E
:10045000840A66220008D100840A66220008D200BD
:10046000840A66220008D300840A66220008D400A9
:10047000840A66220008D500840A66220008D60095
:10048000840A66220008D700840A66220008D80081
:10049000840A66220008D900840A66220008DA006D
:1004A000840A66220008DB00840A66220008DC0059
:1004B000840A66220008DD00840A66220008DE0045
:1004C000840A66220408AD00FF11702A0408E93C82
:1004D00003196D2A031C6D2A08009030840008005F
:1004E000FF30C8005108710203197A2A5108FF3CF5
:1004F000031D080000215008513C031DEB2AFF1387
:10050000320853020319FF175308B2005408503C35
:100510000319252B5408333C0319412B5408343C50
:1005200003196F2B5408353C0319882B5408363CAB
:100530000319B32B5408373C0319D12B5408383C0A
:100540000319F32B54084C3C03196A2C5408543CEF
:100550000319732C5408493C0319992C5408523C34
:100560000319942C5408423C0319BB2C5408463CF4
:100570000319F32C54084F3C0319122D5408413C25
:100580000319C42C5408433C0319462D5408443C19
:100590000319502D5408453C03195C2D5408473C61
:1005A0000319682D5408483C0319742D54084A3C1B
:1005B0000319802D54084B3C03198C2D54084D3CD5
:1005C0000319982D54084E3C0319A42D5408513C8E
:1005D0000319B02D08005008523C031D062BB6012C
:1005E000A80A5408503C0319BB2D5408363C031983
:1005F000C32D5408373C0319DC2D5408393C03192A
:10060000F52D5408543C0319322E08005008453C7F
:10061000031D0800B601A80A08005108FF3C031991
:1006200008005230E0005208E1005308E30054088B
:10063000E40012294530E0005208E1005308E300CD
:100640005408E4002608E50012297F182C2BE72720
:100650007F140130FC007B155230E0005208E100AD
:100660005308E3005408E4000230E5000130E600DE
:100670000130E7000330E80000307B185030E9001B
:100680001229FF1B0D2BA60183135508313C0319BA
:100690004E2B5508323C0319522B1A2B7230840012
:1006A0007E15552B73308400FE15A60A3030560295
:1006B000CA00F839031D1A2BA60A0310CA0D03102D
:1006C000CA0D3030570203196B2B31305702031D0E
:1006D0001A2B0230CA0731200530B3000D2BFF1B47
:1006E0000D2BA60155088316B900831256088316F0
:1006F000BA00831257088316BB008312580883166A
:10070000BC00831259088316BD008312FE160D2B00
:10071000FF1B0D2BA601831330305602CA00F83997
:10072000031D1A2BA60A5508313C03199C2B5508AA
:10073000323C0319A52B1A2B4A0853208400570872
:100740008000723084007E15AD2B4A085C20840046
:100750005708800073308400FE154A086520800425
:100760000530B3000D2BA6015508E5005508313CB6
:100770000319BF2B5508323C0319C82B1A2B7408D8
:10078000E600831640088312E7007608E8000D2B88
:100790007508E600831641088312E7007708E80031
:1007A0000D2BA6015508E5005508313C0319DD2B3A
:1007B0005508323C0319E82B1A2B7208E600831601
:1007C00042088312E7007608E8000030E9000D2BAC
:1007D0007308E600831643088312E7007708E800F1
:1007E0007808E9000D2BA60183135508E50055088C
:1007F000313C0319082C5508323C03191F2C5508AD
:10080000333C0319362C5508343C03194D2C1A2B54
:100810003F08E6004008E700E03084000008E800F8
:10082000840A0008E900840A0008EA00840A000833
:10083000EB00791C303079183130EC00632C410822
:10084000E6004208E700E43084000008E800840A7B
:100850000008E900840A0008EA00840A0008EB00A6
:10086000F91C3030F9183130EC00632C4308E600F5
:100870004408E700E83084000008E800840A000823
:10088000E900840A0008EA00840A0008EB00791DE8
:10089000303079193130EC00632C4508E600460809
:1008A000E700EC3084000008E800840A0008E90052
:1008B000840A0008EA00840A0008EB00F91D3030C1
:1008C000F9193130EC00831644088312ED007808E2
:1008D000EE000D2BFF1B0D2B5508F1000530B3006A
:1008E0000A30B4000D2BFF1B0D2B55088316C500D5
:1008F000831256088316C600831257088316C70052
:10090000831258088316C800831259088316C90039
:1009100083125A088316CA0083125B088316CB0021
:1009200083127B15FB150D2BFF1B0D2B0A30B4001A
:100930000D2BFF1B0D2BA60183135508313C03190A
:10094000A62C5508323C0319AA2C1A2B72308400AD
:100950007E15AD2C73308400FE15A60A3030560289
:10096000CA00F839031D1A2BA60A4A08652080061A
:100970000530B3000D2BFF1B0D2B5508FA00053079
:10098000B3000A30B4000D2BFF1B0D2BA6018313FF
:100990005508313C0319D92C5508323C0319DC2C7D
:1009A0005508333C0319DF2C5508343C0319E22C5D
:1009B0001A2BE0308400E52CE4308400E52CE8308C
:1009C0008400E52CEC308400E52C56088000840A75
:1009D00057088000840A58088000840A590880005B
:1009E0000530B3000D2BFF1B0D2BA6015508313C24
:1009F0000319032D5508323C0319072D5508413CB6
:100A000003190B2D1A2B5608F6007E140F2D5608CD
:100A1000F700FE140F2D56080F39F8007E1605302A
:100A2000B3000D2BFF1B0D2BA6015508313C0319FC
:100A30002A2D5508323C03192F2D5508333C031934
:100A4000342D5508343C0319392D5508413C031900
:100A50003E2D1A2B56088316C0008312432D5608CC
:100A60008316C1008312432D56088316C2008312D9
:100A7000432D56088316C3008312432D56080F39A1
:100A80008316C40083120530B3000D2BFF1B0D2B02
:100A90003030550203194E2DEB270D2BF4270D2B6B
:100AA000A6017B1C1A2BFF1B0D2B8A150A1203258E
:100AB0006C258A110A120D2BA6017B1C1A2BFF1B19
:100AC0000D2B8A150A1205256C258A110A120D2B89
:100AD000A6017B1C1A2BFF1B0D2B8A150A1207255A
:100AE0006C258A110A120D2BA6017B1C1A2BFF1BE9
:100AF0000D2B8A150A1209256C258A110A120D2B55
:100B0000A6017B1C1A2BFF1B0D2B8A150A120B2525
:100B10006C258A110A120D2BA6017B1C1A2BFF1BB8
:100B20000D2B8A150A120D256C258A110A120D2B20
:100B3000A6017B1C1A2BFF1B0D2B8A150A120F25F1
:100B40006C258A110A120D2BA6017B1C1A2BFF1B88
:100B50000D2B8A150A1211256C258A110A120D2BEC
:100B6000FF1B0D2B3030550203197B10031D7B1426
:100B70000530B3000D2B7F180800E7277F140130E4
:100B8000FC007B1508005508313C0319CC2D550895
:100B9000323C0319D42D0800B7015608740203191A
:100BA00008000A30B7000800B8015608750203199A
:100BB00008000A30B80008005508313C0319E52D3B
:100BC0005508323C0319ED2D0800BD01560872028C
:100BD000031908000A30BD000800BE015608730260
:100BE000031908000A30BE0008005508313C0319FB
:100BF000062E5508323C0319112E5508333C0319B3
:100C00001C2E5508343C0319272E0800B901791C05
:100C10003030791831305602031908000A30B90013
:100C20000800BA01F91C3030F918313056020319A6
:100C300008000A30BA000800BB01791D303079196C
:100C400031305602031908000A30BB000800BC010D
:100C5000F91D3030F91931305602031908000A30F5
:100C6000BC00080055088316C50083125608831679
:100C7000C600831257088316C700831258088316CC
:100C8000C800831259088316C90083125A088316B4
:100C9000CA0083125B088316CB0083127B15FB15F9
:100CA0000800831203178D018F0183168C130C1417
:100CB00083120C08B83C031D682E8313C0308400D7
:100CC0008D0A83160C1483120C088000840F602E8A
:100CD00083120313080064007F13031783168C1814
:100CE0006F2E83128D018F01B8308C0083168C1308
:100CF0000C158B138B1B792E55308D00AA308D006F
:100D00008C148B178313C03084008C18852E6400DC
:100D100083128D0A00088C0083168B138B1B8D2E7B
:100D200055308D00AA308D008C148B17840F852EC2
:100D30000C11831203130800640083018B018C01E2
:100D400083168F3081008D0183128B160B160B17C3
:100D500090010530920083167D3092008C1483122E
:100D60009F0197019D01831680309F009501960198
:100D700003178701880189018801890108148814F3
:100D800008158815831203138316EF308500013090
:100D90008600003089008312061686170613861215
:100DA000861406118611850189018316D001D101AF
:100DB000D201D301D401D501D601D701D801D9017F
:100DC000DA01DB01DC01DD01DE01DF01FF30C00003
:100DD000C100C200C300C400E000E100E400E5007F
:100DE000E800E900EC00ED00E201E301E601E701C3
:100DF000EA01EB01EE01EF011F30B300B400B500D2
:100E0000B60083121030A900AA009030AB00AC00ED
:100E1000AD00AF01B001B101A801CF010A30B700A8
:100E2000B800BD00BE00B900BA00BB00BC00243051
:100E3000A3006430A400F401F501F201F301F9010B
:100E4000FB01F601F701F801A501B601C701B301E5
:100E5000B401C801B201CC01CD01FE30F10083160E
:100E6000C701C601C501C901C801CA01CB01B00152
:100E7000AE01AF01A701B101B20183121730FA0030
:100E800051267A088316990007132430980083129C
:100E900090309800981783168C168312FE01FF017C
:100EA0007E15FE157E10FE107E12FB11FB107B15C9
:100EB0008B170530B500F4278A150A12D1248A1140
:100EC0000A12622F6400FF1C622F18121816FC0110
:100ED0007B1564009227B22781271D227821ED21FE
:100EE0008A150A129B258A150A12D1248A150A121C
:100EF00089248A110A1600218A110A127F1B6B2687
:100F0000692F8316470883127F1C8C2F0139031D1C
:100F1000091003190914912F0439031D091003192D
:100F2000091408007F180800B608031D0800E3270D
:100F30005A30B60000215130E0000030E100710865
:100F4000E2002808E3005030E4000230E500013000
:100F5000E6000130E7000330E80000307B18503035
:100F6000E90012297E18BC278312FE18C9278312B4
:100F70007E1AD627831208007E107208CB007608EE
:100F80007405CA007608FF3A72054A04F2007E151D
:100F90000800FE107308CB0077087505CA007708B3
:100FA000FF3A73054A04F300FE1508007E12730829
:100FB000CB0078087905CA007808FF3A73054A041F
:100FC000F300FE1508000130EB2F0230EB2F033049
:100FD000EB2F0530EB2F89148316AE00AE030630DD
:100FE000B000AF0183120800891432308316B000BC
:080FF000AE01AF0183120800FD
:10100000FF1C08001F1C372BC708031D08009F1872
:1010100008001F081C39C90003100310C90C031075
:10102000C90C490882073F2B4B2B572B632B820798
:101030003034313432343334343435343634373474
:1010400038343934413442344334443445344634FA
:101050008207312E382E3F2E462E4D2E542E5B2EDB
:101060008207622E692E702E772E7E2E852E8C2E74
:10107000932E9A2EA12EA82EAF2E8207B62EDC2EEE
:0E10800008000800080008000800080008002A
:101200000B11A30B08002430A3006A2192214D2268
:10121000A708031DA7030020A40B08006430A40046
:10122000FF1C53227F1857227F22B608031DB603E6
:101230001D210223092370240800A508031DA50B06
:1012400008007B1508008C10FE1E0800CF0A4F080E
:10125000103C0318392905124F08173C03180800E1
:101260004F1808004F08673C03183B29FE12CF01B6
:101270000800051608004F08183C031955294F08A7
:10128000283C031959294F08383C03195D294F0898
:10129000483C031961294F08583C031965298316F6
:1012A000B70D831203180516080083163908B70016
:1012B0004F2983163A08B7004F2983163B08B70019
:1012C0004F2983163C08B7004F2983163D08B70005
:1012D0004F2908008316B008831203197A29831650
:1012E000B0038312031D080089100C308316AF0071
:1012F000831208008316AE088312031908008316B0
:10130000AF088312031908008316AF038312031D6D
:1013100008008316AE038312891406308316B000CA
:1013200083120800B108031DB10B08002B08AC00A4
:10133000AF0108008316291CA7292008323C031995
:10134000AD29A00A2008323C03192D22AD29A0089E
:101350000319AD29A00BAD292F22A91CB9292108F9
:10136000323C0319BF29A10A2108323C031931225A
:10137000BF29A1080319BF29A10BBF293322291DA9
:10138000CB292208323C0319D129A20A2208323C77
:1013900003193522D129A2080319D129A20BBF298B
:1013A0003722A91DDD292308323C0319E329A30AAA
:1013B0002308323C03193922E329A3080319E3293E
:1013C000A30BE3293B22291EEF292408323C0319F1
:1013D000F529A40A2408323C03193D22F529A40862
:1013E0000319F529A40BF5293F22A91E012A250876
:1013F000323C0319072AA50A2508323C0319412269
:10140000072AA5080319072AA50B072A4322291F23
:10141000132A2608323C0319192AA60A2608323C48
:1014200003194522192AA6080319192AA60B192AF5
:101430004722A91F252A2708323C03192B2AA70A6D
:101440002708323C031949222B2AA70803192B2A03
:10145000A70B2B2A4B2283120800281408002810FF
:101460000800A8140800A810080028150800281172
:101470000800A8150800A81108002816080028125E
:101480000800A8160800A81208002817080028134A
:101490000800A8170800A8130800C708031DC70BF9
:1014A00008009F140800B50B0800FF140800C808C6
:1014B00003190800C80B08001E30B6008A110A1272
:1014C00000218A150A125130E0000030E100710855
:1014D000E2002808E3005030E4000230E50001306B
:1014E000E6000130E7000330E80000307B185030A0
:1014F000E9008A110A1212218A150A1208008316BD
:10150000D0080319882AD00B882A72107E157F17FD
:10151000D1080319902AD10B902AF2107E157F175B
:10152000D2080319982AD20B982A72117E157F17B8
:10153000D3080319A02AD30BA02AF2117E157F1716
:10154000D4080319A82AD40BA82A72127E157F1773
:10155000D5080319B02AD50BB02AF2127E157F17D1
:10156000D6080319B82AD60BB82A72137E157F172E
:10157000D7080319C02AD70BC02AF2137E157F178C
:10158000D8080319C82AD80BC82A7310FE157F176C
:10159000D9080319D02AD90BD02AF310FE157F17CA
:1015A000DA080319D82ADA0BD82A7311FE157F1727
:1015B000DB080319E02ADB0BE02AF311FE157F1785
:1015C000DC080319E82ADC0BE82A7312FE157F17E2
:1015D000DD080319F02ADD0BF02AF312FE157F1740
:1015E000DE080319F82ADE0BF82A7313FE157F179D
:1015F000DF080319002BDF0B002BF313FE157F17F9
:1016000083120800B30803190800B30B08007F1702
:101610000800FB1D202B8316C70A47083C3C031D0E
:101620001E2B7B16C701C60A46083C3C031D1E2B19
:10163000C601C50A4508183C0319C50183120800F4
:101640007F1C08008A110A1200218A150A125130E3
:10165000E0000030E1007108E2002808E3005430A7
:10166000E4008A110A1212218A150A1208009F0149
:101670001F179F1779121F140530C70008001E0896
:10168000BF0083161E088312C0001F159F111F1272
:101690000530C700702B1E08C10083161E08831278
:1016A000C2001F119F151F120530C700702B1E08A6
:1016B000C30083161E088312C4001F159F151F1236
:1016C0000530C700702B1E08C50083161E08831244
:1016D000C6001F119F111F120530C7007916702B0D
:1016E000791E0800831660080439031DB12B791C8C
:1016F0008A2B620883123F020319812B031C9C2B47
:10170000B12B831663088312400203199C2B031C20
:101710009C2BB12B8316600883123F020319932B75
:101720000318A72BB12B83166108831240020319FB
:10173000A72B0318A72BB12B8316B30BB12B791052
:101740007E16441CB12B0A308312B900B12B8316CC
:10175000B30FB12B79147E16441CB12B0A308312BF
:10176000B900831664080439031DF02BF91CC92B3A
:101770006608831241020319C02B031CDB2BF02BDC
:1017800083166708831242020319DB2B031CDB2B31
:10179000F02B83166408831241020319D22B03181D
:1017A000E62BF02B83166508831242020319E62B01
:1017B0000318E62BF02B8316B40BF02BF9107E16D2
:1017C000C41CF02B0A308312BA00F02B8316B40F1E
:1017D000F02BF9147E16C41CF02B0A308312BA00C9
:1017E000831668080439031D2F2C791D082C6A08FC
:1017F000831243020319FF2B031C1A2C2F2C831670
:101800006B088312440203191A2C031C1A2C2F2C68
:1018100083166808831243020319112C0318252C20
:101820002F2C83166908831244020319252C0318F0
:10183000252C2F2C8316B50B2F2C79117E16441DC9
:101840002F2C0A308312BB002F2C8316B50F2F2CA0
:1018500079157E16441D2F2C0A308312BB00831687
:101860006C080439031D6E2CF91D472C6E08831279
:10187000450203193E2C031C592C6E2C83166F084D
:10188000831246020319592C031C592C6E2C831603
:101890006C08831245020319502C0318642C6E2C1B
:1018A00083166D08831246020319642C0318642CF6
:1018B0006E2C8316B60B6E2CF9117E16C41D6E2C81
:1018C0000A308312BC006E2C8316B60F6E2CF915ED
:1018D0007E16C41D6E2C0A308312BC0083120800D1
:1018E000B40803190800B40B08000000752CCC00E4
:1018F00000000000CC0B782C0800FA30CC0000006F
:101900000000CC0B7F2C0800CD007D24CD0B852C56
:1019100008007B1C0800FB1C08007B1E0800032538
:101920002030FE2483164808831228202030FE240D
:10193000831649088312832583162C0883121720E7
:10194000FE2483162D0883121720FE242030FE2447
:1019500083164A08831230202030FE242030FE24D3
:101960002030FE24831645088312832583162C0815
:1019700083121720FE2483162D0883121720FE24BD
:101980003A30FE24831646088312832583162C08DA
:1019900083121720FE2483162D0883121720FE249D
:1019A00008007B1C08007B1D0800FB1C132DA508EC
:1019B000031D08007B117C083D28861400000000F0
:1019C00000008610080086158316FF3088008312F9
:1019D0008614FF30A7006400A7080319F82C881BA1
:1019E000EB2C8610831600308800831286110800C5
:1019F0007B10080006118800E324DD2C0611880006
:101A0000E3240615DD2C8030FA2C8A30FA2CC03005
:101A1000FA2CCA30FA2C9430FA2C9E30FA2CD4309E
:101A2000FA2CDE30FA2C7B113830FA248A150A128F
:101A3000053084248A150A123830FA248A150A12CD
:101A4000053084248A150A123830FA248A150A12BD
:101A5000053084248A150A120130FA247B1C080000
:101A60000630FA240C30FA248030FA24FB140325C3
:101A70002030FE244730FE246E30FE247530FE24D4
:101A80002D30FE244D30FE244830FE246F30FE24DD
:101A90006D30FE246530FE2407252030FE242030E2
:101AA000FE242030FE244D30FE244930FE244F30E9
:101AB000FE242D30FE243130FE243630FE247830D2
:101AC000FE243130FE243630FE242F30FE244130F7
:101AD000FE244430FE2408007830A5005508FE247A
:101AE0005608FE245708FE245808FE245908FE24F0
:101AF0005A08FE245B08FE245C08FE245D08FE24D0
:101B00005E08FE2408008316AA00AB01AC01AD01FB
:101B100064302A02031C8F2DAA00AB0A882D0A30DC
:101B20002A02031C962DAA00AC0A8F2D2A08AD00AC
:101B3000AA0183120800061686170613861283165A
:101B40000030880083127E19F825FE1910268316AE
:101B5000FF30880083120530CE0006120330772450
:101B60000808CA0064000330842408084A02031DE0
:101B7000CC2DCE0BB22D06164A0874060319D12DB2
:101B8000831640050319C72D83120A30B70083124C
:101B90004A08F4007E14D12D0808CA000530CE0092
:101BA000B22D0530CE0006168613033077240808C0
:101BB000CA0064000330842408084A02031DF32D80
:101BC000CE0BD92D86174A0875060319282E8316C1
:101BD00041050319EE2D83120A30B80083124A081A
:101BE000F500FE14282E0808CA000530CE00D92DB5
:101BF000720883163106420583120319012E0A303A
:101C0000BD007E1172088316B100831288000000A7
:101C10000000061700000000000000000613080086
:101C2000730883163206430583120319192E0A30EE
:101C3000BE00FE1173088316B200831288000000F4
:101C40000000861600000000000000008612080058
:101C5000061686170613861200000000000000001A
:101C600008004C30FE247530FE246E30FE2408003F
:101C70004D30FE246130FE247230FE2408004D30C9
:101C8000FE246930FE246530FE2408004A30FE241C
:101C90007530FE246530FE2408005630FE2469307D
:101CA000FE246530FE2408005330FE246130FE24FB
:101CB0006230FE2408004430FE246F30FE246D3074
:101CC000FE2408004530FE246E30FE246530FE24DC
:101CD00008004630FE246530FE246230FE240800F1
:101CE0004D30FE246130FE247230FE240800413065
:101CF000FE246230FE247230FE2408004D30FE24A3
:101D00006130FE247930FE2408004A30FE2475300C
:101D1000FE246E30FE2408004A30FE247530FE2476
:101D20006C30FE2408004130FE246730FE246F3002
:101D3000FE2408005330FE246530FE247030FE245B
:101D400008004F30FE246330FE247430FE24080067
:101D50004E30FE246F30FE247630FE2408004430DE
:101D6000FE246930FE246330FE2408000F25203055
:101D7000FE242030FE245330FE244930FE2453300C
:101D8000FE245430FE244530FE244D30FE244130E4
:101D9000FE242030FE244930FE244E30FE244930FB
:101DA000FE244330FE244930FE244130FE244430DA
:101DB000FE244F30FE2408007B168924072520309E
:101DC000FE242030FE242030FE242030FE2420304B
:101DD000FE242030FE242030FE242030FE2420303B
:101DE000FE242030FE242030FE242030FE2420302B
:101DF000FE242030FE242030FE242030FE2420301B
:101E0000FE242030FE242030FE242030FE240B252A
:101E10002030FE242030FE242030FE242030FE24FA
:101E20002030FE244730FE246E30FE247530FE2420
:101E30002D30FE244D30FE244830FE246F30FE2429
:101E40006D30FE246530FE242030FE242030FE2438
:101E50002030FE242030FE242030FE242030FE24BA
:101E60000F252030FE242030FE242030FE24203098
:101E7000FE244D30FE244930FE244F30FE242D3008
:101E8000FE243130FE243630FE247830FE243130FA
:101E9000FE243630FE242F30FE244130FE24443010
:101EA000FE242030FE242030FE242030FE2420306A
:041EB000FE24080004
:102200007F1C0800B608031D08007F1908000B2179
:102210004B21F72108008A110A1200218A110A169F
:10222000B70803192629B70B18297F10A80A080038
:1022300037080C3CB6003130E5007408E600831620
:1022400040088312E7007608E8003B29B808031924
:102250000800B80B2E297F10A80A080038080C3C8B
:10226000B6003230E5007508E60083164108831297
:10227000E7007708E8005130E0000030E100710825
:10228000E2002808E3003630E4008A110A12122125
:102290008A110A1608008A110A1200218A110A16E8
:1022A0008313B90803197529B90B59297F10A80A96
:1022B000080039080C3CB6003130E500791C30309C
:1022C00079183130E6003F08E7004008E800E030C8
:1022D00084000008E900840A0008EA00840A000873
:1022E000EB00840A0008EC00E129BA0803199929D7
:1022F000BA0B7D297F10A80A08003A080C3CB600EA
:102300003230E500F91C3030F9183130E600410870
:10231000E7004208E800E43084000008E900840A8D
:102320000008EA00840A0008EB00840A0008EC00B8
:10233000E129BB080319BD29BB0BA1297F10A80AFD
:1023400008003B080C3CB6003330E500791D303006
:1023500079193130E6004308E7004408E800E83026
:1023600084000008E900840A0008EA00840A0008E2
:10237000EB00840A0008EC00E129BC0803190800FE
:10238000BC0BC5297F10A80A08003C080C3CB6000D
:102390003430E500F91D3030F9193130E6004508D8
:1023A000E7004608E800EC3084000008E900840AF1
:1023B0000008EA00840A0008EB00840A0008EC0028
:1023C000E1295130E0000030E1007108E200280806
:1023D000E3003930E400831644088312ED007808E6
:1023E000EE008A110A1212218A110A1608008A11B7
:1023F0000A1200218A110A16BD080319142ABD0BFE
:10240000042A7F10A80A08003D080C3CB6003130B1
:10241000E5007208E600831642088312E70076089A
:10242000E8000030E9002B2ABE0803190800BE0BA3
:102430001C2A7F10A80A08003E080C3CB600323067
:10244000E5007308E600831643088312E700770867
:10245000E8007808E9005130E0000030E100710840
:10246000E2002808E3003730E4008A110A12122142
:062470008A110A160800A3
:02400E00E92F98
:02401000FF3F70
:00000001FF
