:060000000A128A11122809
:10000800FE00030EF6000408F7000A08F800831241
:1000180003137F08F9000A168A15DD2C0A128A11C3
:100028001528FA01FB01FC01FD0183134F30840000
:100038006C300A168A1569240A128A11A0308400C5
:10004800E7300A168A1569240A128A118317903034
:100058008400CC300A168A15692483010A128A1191
:1000680035288F308316031381008312031385010B
:100078008601870188018901EF3083160313850003
:100088000130860080308700FF30880089018B01AD
:100098008B160B160B178316031788018901831219
:1000A80003139F01831603139F0183120313970100
:1000B8009D01831603139501960183120317870187
:1000C8008801890183120313DB01DA01FA117A111D
:1000D8000530C600460883160313E700831203138E
:1000E800D801D701D9011E30C6004608831603136C
:1000F800E900FF3083120313C60046088316031372
:10010800E800FA10FD01FC0183120313CF01D001AE
:10011800D101D201D20AD301D401D5010A128A151C
:100128008E230A128A110A168A1111230A128A11B9
:100138000A168A158C240A128A110A168A15FA24B4
:100148000A128A110A168A118B240A128A1101309E
:100158000A168A151B250A128A1183120313091419
:100168008B1764000A168A1571240A128A110A125A
:100178008A11FF270A128A110A168A1562240A129E
:100188008A11FA1DD828FA11013083120313C60008
:100198004608FD070A168A15B3240A128A110A1698
:1001A8008A1572250A128A117A1D37297A1183163F
:1001B800031367080319F1280130E70202306706C4
:1001C800031DF12802300A168A151B250A128A1106
:1001D8000A128A15F1210A128A1183120313580888
:1001E800031900290130D8025808031D00290A12F2
:1001F8008A157A200A128A118312031357080319E1
:100208000F290130D7025708031D0F290A168A1132
:10021800A5260A128A117C080319212983120313BF
:100228005808031D21295708031D21290130FC0204
:100238007C08031D212900001F2983160313690860
:10024800031928290130E9020A128A11FA270A1229
:100258008A110A128A11FE270A128A110A168A11AD
:10026800CB230A128A11831603136708031DB528C6
:10027800FA1C4129FD1D47294329FD1E47298312E0
:10028800031309144C29FE308312C6004608890559
:100298005C300A168A1546250A128A11003A031993
:1002A800BD2D5130831203135C060319002D5C2DFC
:1002B8005F0883160313680603194D2D3130831226
:1002C80003136306031D85296208D03E0A168A15A2
:1002D800A0250A128A1183120313C6000330C7002F
:1002E8004708A0006108D13E0A128A11E7270A12BE
:1002F8008A11A03E840083120313460883138004E6
:10030800162B6208D03E0A168A15A0250A128A11F1
:10031800FF3A83120313C6000330C7004708A00042
:100328006108D13E0A128A11E7270A128A11A03EF3
:10033800840083120313460883138005162B5F0875
:10034800831603136806031DDA294D2D83126208EC
:10035800D03E0A168A15A0250A128A1183120313A1
:10036800C600460883160313A60483120313630802
:10037800C6006208D03ED4296208D03E0A168A1503
:10038800A0250A128A1183120313C6004608831691
:100398000313A904831203136308C6006208D83E36
:1003A800BC3E84004608831380004D2D83126108EB
:1003B800313A0319AA29033A0319C0294D2D4D2DA5
:1003C8000330C6004608A0006108CF3E0A128A1111
:1003D800E7270A128A11A03E8400831300088312BB
:1003E8000313C7004708E2006108C6000130031084
:1003F800C60DFF3E031DFB299E304607C7009130FE
:100408004707C800480A840083170008C90049083C
:10041800E3006108C60046079E3E913E840000083E
:10042800C7004708E4004D2D0330C6004608A00069
:100438006108D13E0A128A11E7270A128A11A03EE2
:1004480084008313000883120313C7004708E200DF
:100458006108C60001300310C60DFF3E031D2F2A98
:10046800A2304607C70091304707C800480A8400F1
:1004780083170008C9004908E3006108C600460759
:100488009E3E913E84000008C7004708E40083169A
:100498000317290883120313C6004608E5004D2DEB
:1004A8006108C60002300310C60DFF3E031D572A1F
:1004B8003C304607C700AC304707C8004808023E32
:1004C800840083130008C9004908E2006108C600D7
:1004D80002300310C60DFF3E031D6D2A3C3046074F
:1004E800C700AC304707C8004808033E840000082E
:1004F800C9004908E3006108C60001300310C60DB1
:10050800FF3E031D822A0310460D3C3E993E84009F
:1005180083170008C7004708E4006108C6000230D6
:100528000310C60DFF3E031D942A3C304607C70042
:1005380099304707C800480A84000008C9004908DC
:10054800E5006108C60002300310C60DFF3E031D1A
:10055800A82A3C304607C70099304707C800480812
:10056800023E84000008C9004908E6006108C60088
:1005780002300310C60DFF3E031DBD2A3C3046075E
:10058800C70099304707C8004808033E84000008A0
:10059800C9004908E7006108C60001300310C60D0C
:1005A800FF3E031DD22A0310460D3C3EAC3E84009C
:1005B80083130008C7004708E800831603172A08B2
:1005C80083120313C6004608E90083160317290897
:1005D80083120313C6004608EA004D2D5F088316F0
:1005E8000313680603194D2D831203136208D03EC6
:1005F8000A168A15A0250A128A1183120313C60047
:100608000330C7004708A0006108D13E0A128A11CA
:10061800E7270A128A11A03E8400831203134608B2
:10062800831380063C30C6004608D7004D2DBF30E6
:1006380061060319312B5F3061060319312B17301E
:1006480061060319312B0B3061060319312B033076
:100658006106031D6103031D4D2D6108C600460890
:1006680083160317AB0083120313D801D80AD701E6
:10067800D70A0530C6004608FC0014300A168A1549
:100688001B250A128A114D2D831203135F08831646
:1006980003136806031D6B2B4D2D83126208C600D9
:1006A8004608831603179100BF2B831203136208B1
:1006B800C6004608831603179300BF2B8312031343
:1006C8006208C600460883160317A900BF2B8312C9
:1006D80003136108313A0319512B033A0319592BB3
:1006E800733A0319622B782BBF2B5F088316031309
:1006F8006806031DAC2B4D2D83126208C600460800
:10070800831603179200BF2B831203136208C600D7
:100718004608831603179400BF2B8312031362083D
:10072800C6004608831603179600BF2B83120313CF
:100738006208C6004608831603179800BF2B831269
:1007480003136208C600460883160317AA00BF2BC6
:10075800831203136108313A0319802B033A0319F2
:10076800882B013A0319912B073A03199A2B753AEA
:100778000319A32BBF2B0A3083120313192C5F080C
:1007880083160313680603194D2D83120313620899
:10079800C6006108C70001300310C70DFF3E031DE6
:1007A800D02B0310470D3C3E993E84004608831722
:1007B80080006208C6006108C70002300310C70D38
:1007C800FF3E031DE22B3C304707C800993048071D
:1007D800C900490A8400460880006108C600023042
:1007E8000310C60DFF3E031DF42B3C304607C7001F
:1007F80099304707C8004808023E84008001620813
:10080800C6006108C70002300310C70DFF3E031D74
:10081800082C3C304707C80099304807C9004908E8
:10082800033E8400460880000A30C6004608D80007
:100838004D2D6108D03E0A168A151B250A128A1109
:100848004D2D83120313EB01A801A80A6130A900FA
:100858000030AA0001300A168A1104200A128A11EF
:100868004D2D83120313EB011430C6004608A8006F
:100878006130A9000030AA0001300A168A1104204C
:100888000A128A114D2D83120313EB01A801A80A3D
:100898006130A9000030AA0002300A168A1104202B
:1008A8000A128A114D2D83120313EB011430C6006E
:1008B8004608A8006130A9000030AA0002300A16D4
:1008C8008A1104200A128A114D2D83120313EB0199
:1008D800A801A80A6130A9000030AA0003300A164E
:1008E8008A1104200A128A114D2D83120313EB0179
:1008F8001430C6004608A8006130A9000030AA00DC
:1009080003300A168A1104200A128A114D2D831207
:100918000313EB01A801A80A6130A9000030AA005E
:1009280004300A168A1104200A128A114D2D8312E6
:100938000313EB011430C6004608A8006130A90073
:100948000030AA0004300A168A1104200A128A11FB
:100958004D2D83120313610803194D2DFE306102DA
:1009680003184D2D6108C60046088316031790002A
:1009780083120313D801D80AD701D70A0530C60055
:100988004608FC0014300A168A151B250A128A111B
:100998004D2DD801D80AD701D70A0530C600460818
:1009A800FC0014300A168A151B250A128A114D2DCF
:1009B800831203136708C6004608CF006608C600FE
:1009C8004608D0006408C6004608D1006508C6007D
:1009D8004608D2006108C6004608D3006208C6006F
:1009E8004608D4006308C6004608D5004D2D45309A
:1009F800C6004608DC004D2D6008333A03195C290F
:100A0800073A03194D2D013A0319A329033A03198B
:100A1800E429013A0319182A0F3A0319542A793A92
:100A28000319C32B033A03191B2B013A03191D2C75
:100A3800073A0319252C013A0319352C033A0319EF
:100A4800482B013A0319472C0F3A0319572C013A3E
:100A58000319F22A033A0319692C013A0319792C6C
:100A6800073A0319AD2C013A03198B2C033A0319E1
:100A78009B2C013A0319792B1F3A03194D2D013A82
:100A880003194D2D033A0319CD2C063A0319DC2C12
:100A9800FB2C5C300A128A1501200A128A11831273
:100AA80003135F08C600460883160313E800BD2D2C
:100AB800523083125C06031DBD2D5F088316031791
:100AC8003F06031DBD2D8312031360088316031709
:100AD8004006031DBD2D83120313D901831603138A
:100AE800E9010A168A1595240A128A11B02D831273
:100AF80003136208C6004608A00061080A168A1592
:100B08006F260A128A11BD2D831203136208C600CC
:100B18004608A0006108023E0A168A156F260A12C6
:100B28008A11BD2DFA18BD2DFA1405300A168A153A
:100B38001B250A128A11023083120313C6004608C5
:100B4800A8001430A9008030AA0003300A168A11C0
:100B580004200A128A11BD2D831203136008363A45
:100B680003197B2D013A0319882D673A0319962D2D
:100B7800BD2D831603136908031DB528FA1CAA2E78
:100B88008312031359080319222E0130D902590878
:100B9800031D132E0A168A159E240A128A11FA10AA
:100BA800023083120313C6004608A8000130A900CA
:100BB8008030AA0003300A168A1104200A128A110A
:100BC800082E83160317420883120313C60046082B
:100BD800A0008316031741080A168A156F260A1201
:100BE8008A11B52883160317420883120313C60017
:100BF8004608A000831603174108023E0A168A1504
:100C08006F260A128A11B528831603174008363A48
:100C18000319E52D013A0319F62DB528B528BC307E
:100C28000A168A11C4200A128A1102308312031389
:100C3800C600460883160313E900B5288312CE01BF
:100C480004304E020318B5284E08313E0A168A159C
:100C580037260A128A11003A0319A32E023083128A
:100C680003134E02031C3A2E37303B2E3630CA008F
:100C78000030CB004A08C600460883160317C00098
:100C8800831203134E184A2E31304B2E3230CC00CB
:100C98000030CD004C08C600460883160317C10073
:100CA800033083120313C6004608A0004E080A1238
:100CB8008A11E7270A128A11A03E840083130008CC
:100CC80083120313C700470883160317C200831251
:100CD80003134E08C60001300310C60DFF3E031D66
:100CE800702E91304607C700470A84008317000812
:100CF800C800480883160317C300831203134E085D
:100D0800C6004607913E84000008C70047088316BE
:100D18000317C400023083120313C6004608831663
:100D28000313E9000A3083120313C6004608D900EA
:100D3800BC300A168A11C4200A128A11B52801305B
:100D480083120313C6004608CE07242E50308312A0
:100D5800C600460883160317C00002308312031327
:100D6800C600460883160317C100C201C20A023032
:100D780083120313C600460883160317C300033003
:100D880083120313C600460883160317C400C40160
:100D9800BC300A168A11C4200A128A110F30831235
:100DA8000313C600460883160313E90083120313CE
:100DB800D90100300A168A151B250A128A11B5288E
:100DC800831603133C080319F62E0130BC023C08B5
:100DD800031DF62EFE3083120313A000200883168D
:100DE8000313A6053D080319062F0130BD023D086F
:100DF800031D062FFD3083120313A000200883165D
:100E08000313A6053E080319162F0130BE023E083B
:100E1800031D162FFB3083120313A000200883162E
:100E28000313A6053F080319262F0130BF023F0808
:100E3800031D262FF73083120313A0002008831602
:100E48000313A60540080319362F0130C0024008D5
:100E5800031D362FEF3083120313A00020088316DA
:100E68000313A60541080319462F0130C1024108A2
:100E7800031D462FDF3083120313A00020088316BA
:100E88000313A60542080319562F0130C20242086F
:100E9800031D562FBF3083120313A00020088316AA
:100EA8000313A60543080319662F0130C30243083C
:100EB800031D662F7F3083120313A00020088316BA
:100EC8000313A60544080319762F0130C402440809
:100ED800031D762FFE3083120313A000200883160B
:100EE8000313A90545080319862F0130C5024508D3
:100EF800031D862FFD3083120313A00020088316DC
:100F08000313A90546080319962F0130C60246089F
:100F1800031D962FFB3083120313A00020088316AD
:100F28000313A90547080319A62F0130C70247086C
:100F3800031DA62FF73083120313A0002008831681
:100F48000313A90548080319B62F0130C802480839
:100F5800031DB62FEF3083120313A0002008831659
:100F68000313A90549080319C62F0130C902490806
:100F7800031DC62FDF3083120313A0002008831639
:100F88000313A9054A080319D62F0130CA024A08D3
:100F9800031DD62FBF3083120313A0002008831629
:100FA8000313A9054B08031908000130CB024B08AD
:100FB800031D08007F3083120313A0002008831646
:100FC8000313A905080083120313A300A201231C1D
:100FD800F12F2008A1002108A2070310A00D03107B
:100FE800A30C2308031DEB2F220808000A128A11FC
:080FF800E426080008000800CF
:1010020083120313A6002608A1002108A3002608C4
:101012008400513083130006031D15285230A100AD
:101022002608840021088000260A84008001831695
:101032000317100883120313A1002608023E84003E
:101042002108800026080F3E84008001A401A5012A
:101052002508803AFF0080307F02031D32280F30BE
:101062002402031854288312031324082307A1001F
:101072002108840083130008A20026080F3E840082
:10108200220880070130A4070318A50A0030A5072B
:101092002508803AFF0080307F02031D52280F305E
:1010A2002402031C342883120313A401A50125087A
:1010B200803AFF0080307F02031D61281030240235
:1010C200031808008312031324082307A100210830
:1010D2008400831300080A168A15A7240A128A15A7
:1010E200013083120313A4070318A50A0030A507D1
:1010F20058285A3083120313A4002408A000003099
:101102000A168A15D1250A128A15831603171008A2
:1011120083120313A4002408A00001300A168A15C2
:10112200D1250A128A158316031711088312031395
:10113200A4002408A00002300A168A15D1250A123A
:101142008A1583160317120883120313A4002408B6
:10115200A00003300A168A15D1250A128A158316B1
:101162000317130883120313A4002408A0000430F9
:101172000A168A15D1250A128A158316031714082E
:1011820083120313A4002408A00005300A168A154E
:10119200D1250A128A158316031716088312031320
:1011A200A4002408A00006300A168A15D1250A12C6
:1011B2008A1583160317180883120313A400240840
:1011C200A00007300A168A15D1250A128A1583163D
:1011D2000317190883120313A4002408A00008307F
:1011E2000A168A15D1250A128A15831603171A08B8
:1011F20083120313A4002408A00009300A168A15DA
:10120200D1250A128A15831603171B0883120313AA
:10121200A4002408A0000A300A168A15D1250A1251
:101222008A15831603171C0883120313A4002408CB
:10123200A0000B300A168A15D1250A128A158316C8
:1012420003171D0883120313A4002408A0000C3006
:101252000A168A15D1250A128A15831603171E0843
:1012620083120313A4002408A0000D300A168A1565
:10127200D1250A128A15831603171F088312031336
:10128200A4002408A0000E300A168A15D1250A12DD
:101292008A1583160317200883120313A400240857
:1012A200A0000F300A168A15D1250A128A15831654
:1012B2000317210883120313A4002408A00010308E
:1012C2000A168A15D1250A128A15831603172208CF
:1012D20083120313A4002408A00011300A168A15F1
:1012E200D1250A128A1583160317230883120313C2
:1012F200A4002408A00012300A168A15D1250A1269
:101302008A1583160317240883120313A4002408E2
:10131200A00013300A168A15D1250A128A158316DF
:101322000317250883120313A4002408A000143015
:101332000A168A15D1250A128A158316031726085A
:1013420083120313A4002408A00015300A168A157C
:10135200D1250A128A15831603172708831203134D
:10136200A4002408A00016300A168A15D1250A12F4
:101372008A1583160317280883120313A40024086E
:10138200A00017300A168A15D1250A128A1583166B
:101392000317290883120313A4002408A00018309D
:1013A2000A168A15D1250A128A15831603172A08E6
:1013B20083120313A4002408A00019300A168A1508
:1013C200D1250A128A15831603172B0883120313D9
:1013D200A4002408A0001A300A168A15D125080094
:1013E20080300A168A15BF240A128A15A53A0319F3
:1013F200152A83160313A001A301A601A901AC01BA
:10140200B001B401B801BC01BD01BE01BF01C00100
:10141200C101C201C301C401C501BC01BD01BE01BC
:10142200BF01C001C1014D2B81300A168A15BF24AC
:101432000A128A1583120313A100210883160313CB
:10144200A00082300A168A15BF240A128A15831256
:101452000313A100210883160313A30083300A1685
:101462008A15BF240A128A1583120313A1002108C8
:1014720083160313A60084300A168A15BF240A12A3
:101482008A1583120313A100210883160313A900EE
:1014920085300A168A15BF240A128A15831203138D
:1014A200A100210883160313AC0086300A168A15A0
:1014B200BF240A128A1583120313A100210883167E
:1014C2000313B00087300A168A15BF240A128A1540
:1014D20083120313A100210883160313B40088307A
:1014E2000A168A15BF240A128A1583120313A10051
:1014F200210883160313B80089300A168A15BF24FF
:101502000A128A1583120313A100210883160313FA
:10151200BC008A300A168A15BF240A128A15831261
:101522000313A100210883160313BD008B300A1692
:101532008A15BF240A128A1583120313A1002108F7
:1015420083160313BE008C300A168A15BF240A12B2
:101552008A1583120313A100210883160313BF0007
:101562008D300A168A15BF240A128A1583120313B4
:10157200A100210883160313C0008E300A168A15B3
:10158200BF240A128A1583120313A10021088316AD
:101592000313C1008F300A168A15BF240A128A1556
:1015A20083120313A100210883160313C200903093
:1015B2000A168A15BF240A128A1583120313A10080
:1015C200210883160313C30091300A168A15BF241B
:1015D2000A128A1583120313A1002108831603132A
:1015E200C40092300A168A15BF240A128A15831281
:1015F2000313A100210883160313C50093300A16B2
:101602008A15BF240A128A1583120313A100210826
:1016120083160313BC0094300A168A15BF240A12DB
:101622008A1583120313A100210883160313BD0038
:1016320095300A168A15BF240A128A1583120313DB
:10164200A100210883160313BE0096300A168A15DC
:10165200BF240A128A1583120313A10021088316DC
:101662000313BF0097300A168A15BF240A128A157F
:1016720083120313A100210883160313C0009830BC
:101682000A168A15BF240A128A1583120313A100AF
:10169200210883160313C100200983120313A1003A
:1016A200210883160313A100230983120313A10047
:1016B200210883160313A4002C0983120313A1002B
:1016C200210883160313AD00300983120313A1000E
:1016D200210883160313B100340983120313A100F6
:1016E200210883160313B500380983120313A100DE
:1016F200210883160313B900260983120313A100DC
:10170200210883160313A700290983120313A100DA
:10171200210883160313AA00080000300A168A154E
:10172200BF240A128A155A3A0319182CFE30831262
:101732000313A10021088316031790009101FF30C3
:1017420083120313A1002108831603179200930149
:10175200FF3083120313A10021088316031794009C
:10176200FF3083120313A10021088316031796008A
:10177200FF3083120313A100210883160317980078
:10178200033083120313A100210883160317990063
:10179200FF3083120313A1002108831603179A0056
:1017A2009B019C01033083120313A10021088316BD
:1017B20003179D00FF3083120313A1002108831633
:1017C20003179E009F01A001033083120313A1009F
:1017D200210883160317A100FF3083120313A1000F
:1017E200210883160317A200A301A4010330831268
:1017F2000313A100210883160317A500FF308312EB
:101802000313A100210883160317A600A701A8014C
:10181200A901AA01173083120313A100210883161C
:101822000317AB0083120313D801D80A0800013052
:101832000A168A15BF240A128A1583120313A100FD
:10184200210883160317900002300A168A15BF2456
:101852000A128A1583120313A100210883160317A3
:10186200910003300A168A15BF240A128A158312C0
:101872000313A100210883160317920004300A16ED
:101882008A15BF240A128A1583120313A1002108A4
:1018920083160317930005300A168A15BF240A120D
:1018A2008A1583120313A1002108831603179400DB
:1018B20006300A168A15BF240A128A1583120313E8
:1018C200A100210883160317960007300A168A150D
:1018D200BF240A128A1583120313A100210883165A
:1018E2000317980008300A168A15BF240A128A15AF
:1018F20083120313A10021088316031799000930EC
:101902000A168A15BF240A128A1583120313A1002C
:101912002108831603179A000A300A168A15BF2473
:101922000A128A1583120313A100210883160317D2
:101932009B000B300A168A15BF240A128A158312DD
:101942000313A1002108831603179C000C300A160A
:101952008A15BF240A128A1583120313A1002108D3
:10196200831603179D000D300A168A15BF240A122A
:101972008A1583120313A1002108831603179E0000
:101982000E300A168A15BF240A128A15831203130F
:10199200A1002108831603179F000F300A168A152B
:1019A200BF240A128A1583120313A1002108831689
:1019B2000317A00010300A168A15BF240A128A15CE
:1019C20083120313A100210883160317A10011300B
:1019D2000A168A15BF240A128A1583120313A1005C
:1019E200210883160317A20012300A168A15BF2493
:1019F2000A128A1583120313A10021088316031702
:101A0200A30013300A168A15BF240A128A158312FC
:101A12000313A100210883160317A40014300A1629
:101A22008A15BF240A128A1583120313A100210802
:101A320083160317A50015300A168A15BF240A1249
:101A42008A1583120313A100210883160317A60027
:101A520016300A168A15BF240A128A158312031336
:101A6200A100210883160317A70017300A168A154A
:101A7200BF240A128A1583120313A10021088316B8
:101A82000317A80018300A168A15BF240A128A15ED
:101A920083120313A100210883160317A90019302A
:101AA2000A168A15BF240A128A1583120313A1008B
:101AB200210883160317AA001A300A168A15BF24B2
:101AC20083120313A100210883160317AB00080039
:101AD200EF3083120313A0002008860500000000E7
:101AE200000083120313081C882D831603134C0A6B
:101AF20003199A2D013083120313A00020088316C4
:101B02000313CC074C0A031D9A2D20149A2D831619
:101B120003134C0803199A2D0130CC024C08031D03
:101B22009A2DFE3083120313A0002008831603139C
:101B3200A00583120313881CB02D831603134D0ACC
:101B42000319C22D013083120313A000200883164B
:101B52000313CD074D0A031DC22DA014C22D8316F7
:101B620003134D080319C22D0130CD024D08031D88
:101B7200C22DFD3083120313A00020088316031325
:101B8200A00583120313081DD82D831603134E0AD2
:101B92000319EA2D013083120313A00020088316D3
:101BA2000313CE074E0A031DEA2D2015EA2D8316D4
:101BB20003134E080319EA2D0130CE024E08031D0D
:101BC200EA2DFB3083120313A000200883160313AF
:101BD200A00583120313881D002E831603134F0AD8
:101BE2000319122E013083120313A000200883165A
:101BF2000313CF074F0A031D122EA015122E8316B0
:101C020003134F080319122E0130CF024F08031D90
:101C1200122EF73083120313A00020088316031339
:101C2200A00583120313081E282E83160313500ADD
:101C320003193A2E013083120313A00020088316E1
:101C42000313D007500A031D3A2E20163A2E83168C
:101C52000313500803193A2E0130D0025008031D15
:101C62003A2EEF3083120313A000200883160313C9
:101C7200A00583120313881E502E83160313510AE4
:101C82000319622E013083120313A0002008831669
:101C92000313D107510A031D622EA016622E83166A
:101CA200031351080319622E0130D1025108031D9A
:101CB200622EDF3083120313A00020088316031361
:101CC200A00583120313081F782E83160313520AEA
:101CD20003198A2E013083120313A00020088316F1
:101CE2000313D207520A031D8A2E20178A2E831647
:101CF2000313520803198A2E0130D2025208031D1F
:101D02008A2EBF3083120313A00020088316031308
:101D1200A00583120313881FA02E83160313530AF0
:101D22000319B22E013083120313A0002008831678
:101D32000313D307530A031DB22EA017B22E831624
:101D4200031353080319B22E0130D3025308031DA3
:101D5200B22E7F3083120313A000200883160313D0
:101D6200A0058312031306167F30A0002008860503
:101D720000000000000083120313081CD22E8316F9
:101D82000313540A0319E42E013083120313A00033
:101D9200200883160313D407540A031DE42E2314C8
:101DA200E42E8316031354080319E42E0130D402DF
:101DB2005408031DE42EFE3083120313A0002008F2
:101DC20083160313A30583120313881CFA2E8316AA
:101DD2000313550A03190C2F013083120313A000B9
:101DE200200883160313D507550A031D0C2FA314CD
:101DF2000C2F83160313550803190C2F0130D5023B
:101E02005508031D0C2FFD3083120313A000200878
:101E120083160313A30583120313081D222F8316AF
:101E22000313560A0319342F013083120313A0003F
:101E3200200883160313D607560A031D342F2315D1
:101E4200342F8316031356080319342F0130D60298
:101E52005608031D342FFB3083120313A000200801
:101E620083160313A30583120313881D4A2F8316B7
:101E72000313570A03195C2F013083120313A000C6
:101E8200200883160313D707570A031D5C2FA315D7
:101E92005C2F83160313570803195C2F0130D702F6
:101EA2005708031D5C2FF73083120313A00020088C
:101EB20083160313A30583120313081E722F8316BE
:101EC2000313580A0319842F013083120313A0004D
:101ED200200883160313D807580A031D842F2316DC
:101EE200842F8316031358080319842F0130D80254
:101EF2005808031D842FEF3083120313A00020081B
:101F020083160313A30583120313881E9A2F8316C5
:101F12000313590A0319AC2F013083120313A000D3
:101F2200200883160313D907590A031DAC2FA316E1
:101F3200AC2F8316031359080319AC2F0130D902B1
:101F42005908031DAC2FDF3083120313A0002008B1
:101F520083160313A30583120313081FC22F8316CC
:101F620003135A0A0319D42F013083120313A0005A
:101F7200200883160313DA075A0A031DD42F2317E6
:101F8200D42F831603135A080319D42F0130DA020F
:101F92005A08031DD42FBF3083120313A000200858
:101FA20083160313A30583120313881FEA2F8316D4
:101FB20003135B0A0319FC2F013083120313A000E1
:101FC200200883160313DB075B0A031DFC2FA317EC
:101FD200FC2F831603135B080319FC2F0130DB026D
:101FE2005B08031DFC2F7F3083120313A00020081F
:0E1FF20083160313A30583120313861708003A
:1020080083120313AC007A1C08002808AB002B08C5
:10201800A6002C080A168A15E8260A168A118312C1
:1020280003132A08FF00290884000A168A150020CD
:102038000A168A11003A03190800153028020318F5
:10204800080083120313A1012A08FF00290884004D
:102058000A168A1500200A168A110A168A11C22140
:102068000A168A11003A03193B287A100800013031
:1020780083120313A9070318AA0A0130AB002B081F
:10208800A8071328F300831203135608031D6928B1
:10209800513073060319582852307306031958280B
:1020A80045307306031D08007308F0007008831696
:1020B8000317AC000130F000700883120313D60731
:1020C8000530F0007008FB0008000F3056020318B6
:1020D8007E287308F0005608AC3E84007008831709
:1020E80080000130F0007008D6070530F000700855
:1020F800FB0008000F305606031D0800FB0173089B
:10210800F0005608AC3E8400700883178000013048
:10211800F0007008D607F101F2010F3072020318BF
:10212800A4287208AC3E84000008F0007008F1078B
:102138000130F0007008F2070F307202031C952876
:10214800831603173B0871060319AE28831203137D
:10215800D6010800831603172E080319B72883121F
:102168000313D6010800831603172D081006031958
:1021780008002D0A0319080083120313D60108006A
:1021880083120313A6002608A1002108A3005130DA
:10219800A10026088400210883178000260A8400ED
:1021A800800183160317100883120313A100260861
:1021B800023E8400210880008316031366088312F8
:1021C8000313A1002608033E840021088000260886
:1021D8000F3E84008001A401A5012508803AFF0074
:1021E80080307F02031DFA280F30240203181C29AF
:1021F8008312031324082307A100210884008317EE
:102208000008A20026080F3E84002208800701303B
:10221800A4070318A50A0030A5072508803AFF007F
:1022280080307F02031D1A290F302402031CFC286A
:1022380083120313A401A5012508803AFF0080300A
:102248007F02031D29291030240203180800831275
:10225800031324082307A10021088400831700081A
:102268000A168A15A7240A168A1101308312031345
:10227800A4070318A50A0030A50720290B118B1EF7
:102288000800831203135B08031D4E292430F00055
:102298007008DB005A08031D55296430F0007008E7
:1022A800DA000130DB025B08031D0800FA15013073
:1022B800DA025A08031D08007A150130F000700888
:1022C800D5073C305502031C0800D5010130F00049
:1022D8007008D4073C305402031C0800D4010130B4
:1022E800F0007008D30718305302031C0800D3010C
:1022F8000130F0007008D107073051020318D101EE
:102308000130F0007008D2071D305202031C8F29DB
:1023180050030319B1291E305202031C9629500399
:102328000319B1291F305202031CAA290330500691
:102338000319B129053050060319B1290830500690
:102348000319B1290A3050060319B1292030520265
:10235800031C08005003031D0800D201D20A0130F3
:10236800F0007008D0070C305002031C0800CF01A1
:1023780064304F02031C0800CF01080083120313C6
:10238800A4000A168A157A240A168A1183120313DE
:102398008615FB30A2002208860500000000000018
:1023A800831203138614000000000000FF3083121C
:1023B8000313A2002208A500E529013083120313A4
:1023C800A50225080319EA29881BE129881FF6298F
:1023D800FD30A20022088605F730A20022088605F3
:1023E80001300800FD30A200220886050000000028
:1023F8000000F73083120313A20022088605210883
:10240800031906150A168A1583240A168A118312D7
:1024180003130808A2002208A5000F30A200220812
:10242800A5052408F039A2002208A504250888007B
:10243800000000000000831203138614000000004F
:102448000000FD3083120313A20022088605000055
:1024580000000000831203130808A2002208A50048
:102468000F30A2002208A5052408A200033003109B
:10247800A20DFF3E031D3B2A0310220DF039A300D5
:102488002308A50425088800000000000000831226
:1024980003138614000000000000FD3083120313AC
:1024A800A200220886050000000000000A168A150E
:1024B8007A2483120313861500300800831203134D
:1024C800A200F92A4C30A1002008840021088313B7
:1024D80080007530A100200A8400210880006E3039
:1024E800A1002008023E84002108800008004D3029
:1024F800A100200884002108831380006130A10016
:10250800200A8400210880007230A1002008023EC1
:1025180084002108800008004D30A10020088400B4
:102528002108831380006930A100200A8400210853
:1025380080006530A1002008023E84002108800048
:1025480008004A30A1002008840021088313800075
:102558007530A100200A8400210880006530A100A0
:102568002008023E84002108800008005630A1009F
:10257800200884002108831380006930A100200A04
:102588008400210880006530A1002008023E8400F4
:102598002108800008005330A10020088400210889
:1025A800831380006130A100200A84002108800084
:1025B8006230A1002008023E840021088000080043
:1025C8004430A100200884002108831380006F3064
:1025D800A100200A8400210880006D30A100200895
:1025E800023E84002108800008002208013A0319ED
:1025F800662A033A03197B2A013A0319902A073AF3
:102608000319A52A013A0319BA2A033A0319CF2A4A
:10261800013A0319E42A102B08009030831203139F
:10262800A100210886049F30A10021088605FF30FB
:10263800831603138800A001A101A301A401A60128
:10264800FF3083120313A100210883160313A70088
:10265800A801A901FF3083120313A10021088316E2
:102668000313AA00AB017F3083120313A1002108D2
:1026780083160313CC007F3083120313A1002108B3
:1026880083160313CD007F3083120313A1002108A2
:1026980083160313CE007F3083120313A100210891
:1026A80083160313CF007F3083120313A100210880
:1026B80083160313D0007F3083120313A10021086F
:1026C80083160313D1007F3083120313A10021085E
:1026D80083160313D2007F3083120313A10021084D
:1026E80083160313D3007F3083120313A10021083C
:1026F80083160313D4007F3083120313A10021082B
:1027080083160313D5007F3083120313A100210819
:1027180083160313D6007F3083120313A100210808
:1027280083160313D7007F3083120313A1002108F7
:1027380083160313D8007F3083120313A1002108E6
:1027480083160313D9007F3083120313A1002108D5
:1027580083160313DA007F3083120313A1002108C4
:1027680083160313DB00BC01BD01BE01BF01C0011C
:10277800C101C201C301C401C501C601C701C80125
:10278800C901CA01CB010A168A153127080033305E
:1027980083120313B1003108A0005108013E0A1644
:1027A8008A1162220A168A11203083120313B1009B
:1027B8003108B6000A3050020318F32B3030B1004C
:1027C8003108B7005008B100B2013108A80032083A
:1027D800A9000A30AA000030AB003830012C83125F
:1027E80003135008B100B2013108A8003208A9004B
:1027F8000A30AA000030AB0037300A168A15942731
:102808000A168A112D3083120313B1003108B9005A
:102818003A30B1003108A0005008013E0A168A116A
:102828007E250A168A11203083120313B10031085D
:10283800BD002030B1003108BE002030B1003108A1
:10284800BF000A30530203183A2C3030B100310867
:10285800C0005308B100B2013108A8003208A9002D
:102868000A30AA000030AB004130482C8312031311
:102878005308B100B2013108A8003208A9000A3093
:10288800AA000030AB0040300A168A1594270A16B1
:102898008A113A3083120313B1003108C2000A309A
:1028A80054020318682C3030B1003108C3005408B2
:1028B800B100B2013108A8003208A9000A30AA0004
:1028C8000030AB004430762C831203135408B10057
:1028D800B2013108A8003208A9000A30AA00003065
:1028E800AB0043300A168A1594270A168A118312F8
:1028F8000313C5010230B1003108A8003330A90024
:102908000030AA0001300A168A11042008007A1043
:102918000A168A157A240A168A11FD3083120313BF
:10292800A6002608831603138605F73083120313BF
:10293800A6002608831603138605FB3083120313AB
:10294800A60026088316031386053C30831203135A
:10295800A700D630A600A60BAF2CA70BAF2C000003
:10296800FD3083120313A60026088605FB30A60057
:1029780026088605F730A600260886050A168A1551
:1029880083240A168A117F3083120313A6002608AF
:102998008805BF30A60026088805881608168614FC
:1029A800000000000000FD3083120313A600260873
:1029B8008605063083120313A700FA30A600A60B7B
:1029C800E32CA70BE32C00008312031386140000EA
:1029D80000000000831203138610063083120313CD
:1029E800A700FA30A600A60BF72CA70BF72C0000BF
:1029F80083120313861400000000000083120313DF
:102A080086100A168A1583240A168A117F308312C3
:102A18000313A60026088805BF30A60026088805E7
:102A28008816EF30A600260888050630831203139F
:102A3800A700FA30A600A60B1F2DA70B1F2D00001C
:102A4800831203138614000000000000FD30831277
:102A58000313A60026088605063083120313A70071
:102A6800FA30A600A60B362DA70B362D00008312D0
:102A78000313A101A10A2C300A168A11C2210A16D1
:102A88008A11003A031D080083120313A101A10A49
:102A980001300A168A11C2210A168A11003A031D4A
:102AA800080083120313A101A10A06300A168A112D
:102AB800C2210A168A11003A031D08008312031363
:102AC800A101A10A0C300A168A11C2210A168A111C
:102AD800003A031D080083120313A101A10A8030E4
:102AE8000A168A11C2210A168A11003A031D080023
:102AF8007A14080083120313A2007E2E4530A10029
:102B0800200884002108831380006E30A100200A69
:102B18008400210880006530A1002008023E84005E
:102B28002108800008004630A10020088400210800
:102B3800831380006530A100200A840021088000EA
:102B48006230A1002008023E8400210880000800AD
:102B58004D30A100200884002108831380006130D3
:102B6800A100200A8400210880007230A1002008FA
:102B7800023E84002108800008004130A10020089E
:102B880084002108831380006230A100200A840099
:102B9800210880007230A1002008023E840021082C
:102BA800800008004D30A10020088400210883130C
:102BB80080006130A100200A84002108800079305B
:102BC800A1002008023E84002108800008004A3045
:102BD800A100200884002108831380007530A1001B
:102BE800200A8400210880006E30A1002008023EDF
:102BF80084002108800008004A30A10020088400D1
:102C08002108831380007530A100200A8400210860
:102C180080006C30A1002008023E8400210880005A
:102C280008004130A1002008840021088313800097
:102C38006730A100200A8400210880006F30A100BD
:102C48002008023E84002108800008005330A100BB
:102C5800200884002108831380006530A100200A21
:102C68008400210880007030A1002008023E840002
:102C78002108800008004F30A100200884002108A6
:102C8800831380006330A100200A8400210880009B
:102C98007430A1002008023E84002108800008004A
:102CA8004E30A100200884002108831380006F3073
:102CB800A100200A8400210880007630A1002008A5
:102CC800023E84002108800008004430A10020084A
:102CD80084002108831380006930A100200A840041
:102CE800210880006330A1002008023E84002108EA
:102CF800800008002208013A0319822D033A0319BB
:102D0800972D013A0319AC2D073A0319C12D013A41
:102D18000319D62D033A0319EB2D013A0319002E96
:102D28000F3A0319152E013A03192A2E033A0319EB
:102D38003F2E013A0319542E073A0319692EA42E7F
:102D48000800A53083120313A4002408A0008030D3
:102D58000A168A15D1250A168A1183160313200824
:102D680083120313A4002408A00081300A168A15D0
:102D7800D1250A168A118316031323088312031315
:102D8800A4002408A00082300A168A15D1250A1644
:102D98008A1183160313260883120313A400240838
:102DA800A00083300A168A15D1250A168A118316BF
:102DB8000313290883120313A4002408A0008430F5
:102DC8000A168A15D1250A168A11831603132C08A8
:102DD80083120313A4002408A00085300A168A155C
:102DE800D1250A168A118316031330088312031398
:102DF800A4002408A00086300A168A15D1250A16D0
:102E08008A1183160313340883120313A4002408B9
:102E1800A00087300A168A15D1250A168A1183164A
:102E28000313380883120313A4002408A000883071
:102E38000A168A15D1250A168A11831603133C0827
:102E480083120313A4002408A00089300A168A15E7
:102E5800D1250A168A11831603133D08831203131A
:102E6800A4002408A0008A300A168A15D1250A165B
:102E78008A11831603133E0883120313A40024083F
:102E8800A0008B300A168A15D1250A168A118316D6
:102E980003133F0883120313A4002408A0008C30F6
:102EA8000A168A15D1250A168A11831603134008B3
:102EB80083120313A4002408A0008D300A168A1573
:102EC800D1250A168A1183160313410883120313A6
:102ED800A4002408A0008E300A168A15D1250A16E7
:102EE8008A1183160313420883120313A4002408CB
:102EF800A0008F300A168A15D1250A168A11831662
:102F08000313430883120313A4002408A00090307D
:102F18000A168A15D1250A168A118316031344083E
:102F280083120313A4002408A00091300A168A15FE
:102F3800D1250A168A118316031345088312031331
:102F4800A4002408A00092300A168A15D1250A1672
:102F58008A1183160313460883120313A400240856
:102F6800A00093300A168A15D1250A168A118316ED
:102F78000313470883120313A4002408A000943005
:102F88000A168A15D1250A168A11831603134808CA
:102F980083120313A4002408A00095300A168A158A
:102FA800D1250A168A1183160313490883120313BD
:102FB800A4002408A00096300A168A15D1250A16FE
:102FC8008A11831603134A0883120313A4002408E2
:102FD800A00097300A168A15D1250A168A11831679
:102FE80003134B0883120313A4002408A00098308D
:102FF8000A168A15D1250800FF1B0A2883137F1893
:1030080083170008840A0319FF0A080018308A0089
:103018000408840A8207003449346E3474346534F1
:103028007234663461346334653420344F34463442
:1030380046342D344C3469346E34653400344934A4
:103048006E34743465347234663461346334653490
:1030580020344F344E342D344C3469346E34653456
:02306800003432
:1038C40083120313981C08001812181608006400C9
:1038D4008001840A04060319003404066A2C0A16BB
:1038E4008A1531270A168A150A128A1569250800CD
:1038F400F03083120313A0002008831603138804F6
:1039040008000F3083120313A0002008831603134A
:103914008805080083120313891083160313E50135
:10392400E401E3010800013083120313A00020081E
:1039340083160313E6070800013083120313A00063
:10394400200883160313E607080083120313A0005C
:1039540083160313981CAA2C8312031320089900BE
:1039640008007B08031908000130FB027B08031DD3
:10397400080083120313D601080083120313A00066
:103984002008831203178D00831603170C14831267
:1039940003170C080800831203138C121A08F4008E
:1039A4007408F500831603138C1E080075080A16A4
:1039B4008A11462008000B1DE42C0A168A114221A4
:1039C4000A168A15831203138C1EED2C0A168A1507
:1039D400CD240A168A15790883120313FF00780888
:1039E4008A0077088400760E8300FE0E7E0E09009E
:1039F40083160313181583160317871183160313ED
:103A04009A01831603172B0883160313990098163B
:103A140018128312031318169817FB01D601831684
:103A24000313E6010B178C168312031318121816CE
:103A3400080083120313A60089142608031D242DED
:103A44000530252D1E30A2000030A3002208A0005E
:103A5400200883160313E400E301831203132608EA
:103A6400031D382D0130A40000303E2D2608A0008F
:103A7400A1012008A4002108A5002408A000200812
:103A840083160313E500080083120313A10010300A
:103A94005606031D702D2108A0002008A200A301D2
:103AA4001030230203186D2D2308AC3E84008317C5
:103AB4000008A0002208840020088313800001303D
:103AC400A0002008A2070130A0002008A30710309E
:103AD4002302031C562DD6011030080000300800C4
:103AE4008316031364080319892D0130E402640862
:103AF400031D0800FD3083120313A000200889056C
:103B04001E30A000200883160313E3000800630896
:103B1400031908000130E3026308031D08000130A3
:103B2400E50265080319080083120313891405309C
:103B3400A000200883160313E40008008312031373
:103B4400A000B62D0130080002300800043008003F
:103B54000830080010300800203008004030080009
:103B640080300800003008002008003A0319A42D12
:103B7400013A0319A62D033A0319A82D013A031992
:103B8400AA2D073A0319AC2D013A0319AE2D033AB5
:103B94000319B02D013A0319B22DB42D0800831274
:103BA4000313A2002208831203178D008312031348
:103BB4002008831203178C00831603178C130C152B
:103BC4000B0883120313A1002108A3008B015530B5
:103BD400831603178D00AA308D008C1483120313EF
:103BE40023088B000000831203130D1AFC2D6400BC
:103BF4000000F52D831603170C11831203130D1205
:103C0400080083120313200821040319322EA5018E
:103C1400A50AA11B192E01300310A00DA10DFF3E12
:103C2400031D0E2E0130A4002408A5070B2E210825
:103C34002302031D1F2E20082202031C272E200806
:103C4400A2022108031CA303A30201300310A10C48
:103C5400A00CFF3E031D282E0130A502031D192EC2
:103C64002308A1002208A000080083120313A10066
:103C7400A2015F2E8316031321082006831603175F
:103C84001205592E831603132308240683160317DB
:103C94001405592E831603132808831603171605D3
:103CA400592E831603132B08831603171805831242
:103CB4000313A0002008A2006D2E2108313A031935
:103CC4003C2E033A0319442E013A03194C2E073AA9
:103CD4000319532E6D2E2208080083120313A20029
:103CE4009A2E2008A100210883160313A1000800BE
:103CF40083122008A100210883160313A4000800DE
:103D0400831603132708831203132006A100210836
:103D140083160313A8000800831603132A088312CA
:103D240003132006A100210883160313AB00080027
:103D340083122208313A0319732E033A03197A2E97
:103D4400013A0319822E073A03198E2EA92E080070
:103D540083120313A501A601200821040319E32EED
:103D6400A701A70AA11BC22E01300310A00DA10DAB
:103D7400FF3E031DB72E0130A4002408A707B42E6C
:103D840001300310A50DA60DFF3E031DC32E21080F
:103D94002302031DCF2E20082202031CD82E200844
:103DA400A2022108031CA303A3022514013003105B
:103DB400A10CA00CFF3E031DD92E0130A702031D48
:103DC400C22E2608A1002508A000080083120313B0
:103DD400A700270803190800053027020318080064
:103DE4002608031908001530260203180800202F9E
:103DF400A101A10A26087F3E0A168A11C2210800E1
:103E040083120313A101A10A2608BF3E0A168A11D0
:103E1400C221080083120313A101A10A2608933EBC
:103E24000A168A11C221080083120313A101A10AF0
:103E34002608D33E0A168A11C221080083120313EE
:103E44002708013A0319FA2E033A0319022F013AFB
:103E540003190C2F073A0319162F302F0800831665
:103E64000313260827060319632F2608270683123F
:103E74000313A000200883160313A8008801260852
:103E84008312031388000000000000008312031350
:103E94000617000000000000BF3083120313A000C7
:103EA40020088605000000000000FF30831603137D
:103EB4008800260883120313A00020088316031326
:103EC400A70029082A060319080029082A068312CC
:103ED4000313A000200883160313AB0088012908EC
:103EE40083120313880000000000000083120313F0
:103EF4008616000000000000DF3083120313A000C8
:103F040020088605000000000000FF30831603131C
:103F14008800290883120313A000200883160313C2
:103F2400AA00080083120313B0002908AE00280871
:103F3400AD002B08A1002A08A0002E08A3002D081C
:103F4400A2000A168A15AA260A168A1583120313D2
:103F54002108AE002008AD000130AC002C08B007E9
:103F64002D082E04031D9B2F300884008313800129
:103F74000130B0022B08A1002A08A0002908A300E0
:103F84002808A2000A168A1503260A168A1583121F
:103F940003132008AC002C08AF002B08A1002A084A
:103FA400A0002908A3002808A2000A168A15AA2638
:103FB4000A168A15831203132108A9002008A800F1
:103FC4000A302F02031CEA2F0730AC002C08AF077D
:103FD4003030AC002C08AF072F08AC003008840048
:103FE4002C08831380000130B00228082904031D23
:0C3FF400BC2F0130AC002C08B007080006
:02400E00E9ECDB
:00000001FF
